{
    "txid": "ac515deab5df953a4c69ed2a7b20f2221f1afaeeeaa4f964e5eecb8d5f5efd35",
    "version": 1,
    "type": 0,
    "size": 191,
    "locktime": 0,
    "vin": [
        {
            "txid": "115612b3e9659b79c70cd550c4884882422b697fff51a4e52fa00bc9c964fc19",
            "vout": 0,
            "scriptSig": {
                "asm": "30440220069e40c38862eebfc77678140eb4ccf12a431b0d27c497d51dd9d57406b77fa902200180d12515dde6aa1cc84a41ffe59b73814fd3a164ca9481207fb03999c48d1a[ALL] 024f2c027ed6a61bc78b0c311f7284c7e46febf191c2510a70ec00bd428586d788",
                "hex": "4730440220069e40c38862eebfc77678140eb4ccf12a431b0d27c497d51dd9d57406b77fa902200180d12515dde6aa1cc84a41ffe59b73814fd3a164ca9481207fb03999c48d1a0121024f2c027ed6a61bc78b0c311f7284c7e46febf191c2510a70ec00bd428586d788"
            },
            "sequence": 4294967295
        }
    ],
    "vout": [
        {
            "value": 1.99300000,
            "valueSat": 199300000,
            "n": 0,
            "scriptPubKey": {
                "asm": "OP_DUP OP_HASH160 9f0242d5b780cbcba16794a27f9d90908531347b OP_EQUALVERIFY OP_CHECKSIG",
                "hex": "76a9149f0242d5b780cbcba16794a27f9d90908531347b88ac",
                "reqSigs": 1,
                "type": "pubkeyhash",
                "addresses": [
                    "WdAo2Xk8r1MVx7ZmxARpJJkgzaFeumDcCS"
                ]
            }
        }
    ],
    "hex": "010000000119fc64c9c90ba02fe5a451ff7f692b42824888c450d50cc7799b65e9b3125611000000006a4730440220069e40c38862eebfc77678140eb4ccf12a431b0d27c497d51dd9d57406b77fa902200180d12515dde6aa1cc84a41ffe59b73814fd3a164ca9481207fb03999c48d1a0121024f2c027ed6a61bc78b0c311f7284c7e46febf191c2510a70ec00bd428586d788ffffffff01a013e10b000000001976a9149f0242d5b780cbcba16794a27f9d90908531347b88ac00000000"
}
