{
    "txid": "afd6b0e0da880ea9951430983a2dbd6205997d9d2f8af0de9d865635598b467f",
    "version": 2,
    "type": 0,
    "size": 85,
    "locktime": 0,
    "vin": [
        {
            "txid": "5897de6bd6027a475eadd57019d4e6872c396d0716c4875a5f1a6fcfdf385c1f",
            "vout": 0,
            "scriptSig": {
                "asm": "",
                "hex": ""
            },
            "sequence": 4294967293
        }
    ],
    "vout": [
        {
            "value": 0.18000000,
            "valueSat": 18000000,
            "n": 0,
            "scriptPubKey": {
                "asm": "OP_DUP OP_HASH160 28f44f89e3fc8c142c216d6c6e0ccf4f70132ae2 OP_EQUALVERIFY OP_CHECKSIG",
                "hex": "76a91428f44f89e3fc8c142c216d6c6e0ccf4f70132ae288ac",
                "reqSigs": 1,
                "type": "pubkeyhash",
                "addresses": [
                    "WSQaac68aRe4GCg3V6FD3sYiQMi3wLPqBK"
                ]
            }
        }
    ],
    "hex": "02000000011f5c38dfcf6f1a5f5a87c416076d392c87e6d41970d5ad5e477a02d66bde97580000000000fdffffff0180a81201000000001976a91428f44f89e3fc8c142c216d6c6e0ccf4f70132ae288ac00000000"
}
