{
    "txid": "d71b9105d185de8b0859d4a85694f3dab19aad401de7c7c52f96ff464af35559",
    "version": 1,
    "type": 0,
    "size": 85,
    "locktime": 0,
    "vin": [
        {
            "txid": "924492787e3c43699a845d4cd2bdaea95fa3db81943b0b4325ac07e275bdcb38",
            "vout": 0,
            "scriptSig": {
                "asm": "",
                "hex": ""
            },
            "sequence": 4294967295
        }
    ],
    "vout": [
        {
            "value": 0.00100000,
            "valueSat": 100000,
            "n": 0,
            "scriptPubKey": {
                "asm": "OP_DUP OP_HASH160 60fbd9176baf3fe58146be1b19264aec63027dff OP_EQUALVERIFY OP_CHECKSIG",
                "hex": "76a91460fbd9176baf3fe58146be1b19264aec63027dff88ac",
                "reqSigs": 1,
                "type": "pubkeyhash",
                "addresses": [
                    "sT6CehN2zH33iyB92wzum4FJ7gVbwQo9Hd"
                ]
            }
        }
    ],
    "hex": "010000000138cbbd75e207ac25430b3b9481dba35fa9aebdd24c5d849a69433c7e789244920000000000ffffffff01a0860100000000001976a91460fbd9176baf3fe58146be1b19264aec63027dff88ac00000000"
}
