{
    "txid": "89fbe402873a4411a9bc41f36aec53ee924bc36f3a54a342a4a9c921672d2fd0",
    "version": 2,
    "type": 0,
    "size": 85,
    "locktime": 0,
    "vin": [
        {
            "txid": "5897de6bd6027a475eadd57019d4e6872c396d0716c4875a5f1a6fcfdf385c1f",
            "vout": 0,
            "scriptSig": {
                "asm": "",
                "hex": ""
            },
            "sequence": 4294967293
        }
    ],
    "vout": [
        {
            "value": 0.18000000,
            "valueSat": 18000000,
            "n": 0,
            "scriptPubKey": {
                "asm": "OP_DUP OP_HASH160 60fbd9176baf3fe58146be1b19264aec63027dff OP_EQUALVERIFY OP_CHECKSIG",
                "hex": "76a91460fbd9176baf3fe58146be1b19264aec63027dff88ac",
                "reqSigs": 1,
                "type": "pubkeyhash",
                "addresses": [
                    "sT6CehN2zH33iyB92wzum4FJ7gVbwQo9Hd"
                ]
            }
        }
    ],
    "hex": "02000000011f5c38dfcf6f1a5f5a87c416076d392c87e6d41970d5ad5e477a02d66bde97580000000000fdffffff0180a81201000000001976a91460fbd9176baf3fe58146be1b19264aec63027dff88ac00000000"
}
