{
    "txid": "5a55f1358f71072b7794fd6d54be5cd7f33df44ebbb042c9f1cc631139ce08b6",
    "version": 1,
    "type": 0,
    "size": 85,
    "locktime": 0,
    "vin": [
        {
            "txid": "924492787e3c43699a845d4cd2bdaea95fa3db81943b0b4325ac07e275bdcb38",
            "vout": 0,
            "scriptSig": {
                "asm": "",
                "hex": ""
            },
            "sequence": 4294967295
        }
    ],
    "vout": [
        {
            "value": 0.00100000,
            "valueSat": 100000,
            "n": 0,
            "scriptPubKey": {
                "asm": "OP_DUP OP_HASH160 28f44f89e3fc8c142c216d6c6e0ccf4f70132ae2 OP_EQUALVERIFY OP_CHECKSIG",
                "hex": "76a91428f44f89e3fc8c142c216d6c6e0ccf4f70132ae288ac",
                "reqSigs": 1,
                "type": "pubkeyhash",
                "addresses": [
                    "WSQaac68aRe4GCg3V6FD3sYiQMi3wLPqBK"
                ]
            }
        }
    ],
    "hex": "010000000138cbbd75e207ac25430b3b9481dba35fa9aebdd24c5d849a69433c7e789244920000000000ffffffff01a0860100000000001976a91428f44f89e3fc8c142c216d6c6e0ccf4f70132ae288ac00000000"
}
